:100000000C9434000C9446000C9446000C9446006A
:100010000C9446000C9446000C9446000C94460048
:100020000C9446000C9446000C94E5000C94CF0010
:100030000C9446000C9446000C9446000C94460028
:100040000C9446000C94BC000C9446000C944600A2
:100050000C9446000C9446000C9446000C94460008
:100060000C9446000C94460011241FBECFEFD8E03C
:10007000DEBFCDBF21E0A0E0B1E001C01D92A43001
:10008000B207E1F70E945E000C94F6000C940000A9
:10009000882329F0813069F4109203010AC080910D
:1000A00003018F5F80930301809181008F7B809398
:1000B000810080918600909187000895F89481E0F6
:1000C0008AB980E184B981EC8CBD1EBC80E49CE9D6
:1000D0009093890080938800509A40E050E0CAE4F1
:1000E000D2E211E0F894489A85E38A95F1F700008E
:1000F000489A7894C093810096B3966296BBD09349
:100100006F0080910201811124C080910301813030
:1001100031F4F89480E00E944800AC01789480911A
:100120000301833071F7F894109203012091860047
:1001300030918700241B350B30930101209300017F
:1001400080910001909101018EBD1093020178947D
:10015000D8CF1092020110928100F894109285007D
:1001600010928400789410926F008FE193E00197D1
:10017000F1F700C00000B6CF1F920F920FB60F929A
:1001800011248F939F9380910001909101019EBD56
:100190009F918F910F900FBE0F901F9018951F92F7
:1001A0000F920FB60F9211248F9381E0809302017A
:1001B000109203011EBC10920101109200018F9158
:1001C0000F900FBE0F901F9018951F920F920FB6B1
:1001D0000F9211248F93809103018F5F809303010D
:1001E0008F910F900FBE0F901F901895F894FFCF2E
:00000001FF
